{
  "contractName": "MememonizeNFT",
  "abi": [
    {
      "inputs": [],
      "stateMutability": "nonpayable",
      "type": "constructor"
    },
    {
      "anonymous": false,
      "inputs": [
        {
          "indexed": true,
          "internalType": "address",
          "name": "owner",
          "type": "address"
        },
        {
          "indexed": true,
          "internalType": "address",
          "name": "approved",
          "type": "address"
        },
        {
          "indexed": true,
          "internalType": "uint256",
          "name": "tokenId",
          "type": "uint256"
        }
      ],
      "name": "Approval",
      "type": "event"
    },
    {
      "anonymous": false,
      "inputs": [
        {
          "indexed": true,
          "internalType": "address",
          "name": "owner",
          "type": "address"
        },
        {
          "indexed": true,
          "internalType": "address",
          "name": "operator",
          "type": "address"
        },
        {
          "indexed": false,
          "internalType": "bool",
          "name": "approved",
          "type": "bool"
        }
      ],
      "name": "ApprovalForAll",
      "type": "event"
    },
    {
      "anonymous": false,
      "inputs": [
        {
          "indexed": true,
          "internalType": "uint256",
          "name": "tokenId",
          "type": "uint256"
        },
        {
          "indexed": true,
          "internalType": "address",
          "name": "seller",
          "type": "address"
        },
        {
          "indexed": true,
          "internalType": "address",
          "name": "buyer",
          "type": "address"
        },
        {
          "indexed": false,
          "internalType": "uint256",
          "name": "price",
          "type": "uint256"
        }
      ],
      "name": "NFTPurchased",
      "type": "event"
    },
    {
      "anonymous": false,
      "inputs": [
        {
          "indexed": true,
          "internalType": "address",
          "name": "previousOwner",
          "type": "address"
        },
        {
          "indexed": true,
          "internalType": "address",
          "name": "newOwner",
          "type": "address"
        }
      ],
      "name": "OwnershipTransferred",
      "type": "event"
    },
    {
      "anonymous": false,
      "inputs": [
        {
          "indexed": true,
          "internalType": "address",
          "name": "from",
          "type": "address"
        },
        {
          "indexed": true,
          "internalType": "address",
          "name": "to",
          "type": "address"
        },
        {
          "indexed": true,
          "internalType": "uint256",
          "name": "tokenId",
          "type": "uint256"
        }
      ],
      "name": "Transfer",
      "type": "event"
    },
    {
      "inputs": [
        {
          "internalType": "address",
          "name": "to",
          "type": "address"
        },
        {
          "internalType": "uint256",
          "name": "tokenId",
          "type": "uint256"
        }
      ],
      "name": "approve",
      "outputs": [],
      "stateMutability": "nonpayable",
      "type": "function"
    },
    {
      "inputs": [
        {
          "internalType": "address",
          "name": "owner",
          "type": "address"
        }
      ],
      "name": "balanceOf",
      "outputs": [
        {
          "internalType": "uint256",
          "name": "",
          "type": "uint256"
        }
      ],
      "stateMutability": "view",
      "type": "function"
    },
    {
      "inputs": [
        {
          "internalType": "uint256",
          "name": "tokenId",
          "type": "uint256"
        }
      ],
      "name": "getApproved",
      "outputs": [
        {
          "internalType": "address",
          "name": "",
          "type": "address"
        }
      ],
      "stateMutability": "view",
      "type": "function"
    },
    {
      "inputs": [
        {
          "internalType": "address",
          "name": "owner",
          "type": "address"
        },
        {
          "internalType": "address",
          "name": "operator",
          "type": "address"
        }
      ],
      "name": "isApprovedForAll",
      "outputs": [
        {
          "internalType": "bool",
          "name": "",
          "type": "bool"
        }
      ],
      "stateMutability": "view",
      "type": "function"
    },
    {
      "inputs": [],
      "name": "name",
      "outputs": [
        {
          "internalType": "string",
          "name": "",
          "type": "string"
        }
      ],
      "stateMutability": "view",
      "type": "function"
    },
    {
      "inputs": [],
      "name": "owner",
      "outputs": [
        {
          "internalType": "address",
          "name": "",
          "type": "address"
        }
      ],
      "stateMutability": "view",
      "type": "function"
    },
    {
      "inputs": [
        {
          "internalType": "uint256",
          "name": "tokenId",
          "type": "uint256"
        }
      ],
      "name": "ownerOf",
      "outputs": [
        {
          "internalType": "address",
          "name": "",
          "type": "address"
        }
      ],
      "stateMutability": "view",
      "type": "function"
    },
    {
      "inputs": [],
      "name": "renounceOwnership",
      "outputs": [],
      "stateMutability": "nonpayable",
      "type": "function"
    },
    {
      "inputs": [
        {
          "internalType": "address",
          "name": "from",
          "type": "address"
        },
        {
          "internalType": "address",
          "name": "to",
          "type": "address"
        },
        {
          "internalType": "uint256",
          "name": "tokenId",
          "type": "uint256"
        }
      ],
      "name": "safeTransferFrom",
      "outputs": [],
      "stateMutability": "nonpayable",
      "type": "function"
    },
    {
      "inputs": [
        {
          "internalType": "address",
          "name": "from",
          "type": "address"
        },
        {
          "internalType": "address",
          "name": "to",
          "type": "address"
        },
        {
          "internalType": "uint256",
          "name": "tokenId",
          "type": "uint256"
        },
        {
          "internalType": "bytes",
          "name": "data",
          "type": "bytes"
        }
      ],
      "name": "safeTransferFrom",
      "outputs": [],
      "stateMutability": "nonpayable",
      "type": "function"
    },
    {
      "inputs": [
        {
          "internalType": "uint256",
          "name": "",
          "type": "uint256"
        }
      ],
      "name": "salePrices",
      "outputs": [
        {
          "internalType": "uint256",
          "name": "",
          "type": "uint256"
        }
      ],
      "stateMutability": "view",
      "type": "function"
    },
    {
      "inputs": [
        {
          "internalType": "address",
          "name": "operator",
          "type": "address"
        },
        {
          "internalType": "bool",
          "name": "approved",
          "type": "bool"
        }
      ],
      "name": "setApprovalForAll",
      "outputs": [],
      "stateMutability": "nonpayable",
      "type": "function"
    },
    {
      "inputs": [
        {
          "internalType": "bytes4",
          "name": "interfaceId",
          "type": "bytes4"
        }
      ],
      "name": "supportsInterface",
      "outputs": [
        {
          "internalType": "bool",
          "name": "",
          "type": "bool"
        }
      ],
      "stateMutability": "view",
      "type": "function"
    },
    {
      "inputs": [],
      "name": "symbol",
      "outputs": [
        {
          "internalType": "string",
          "name": "",
          "type": "string"
        }
      ],
      "stateMutability": "view",
      "type": "function"
    },
    {
      "inputs": [
        {
          "internalType": "address",
          "name": "from",
          "type": "address"
        },
        {
          "internalType": "address",
          "name": "to",
          "type": "address"
        },
        {
          "internalType": "uint256",
          "name": "tokenId",
          "type": "uint256"
        }
      ],
      "name": "transferFrom",
      "outputs": [],
      "stateMutability": "nonpayable",
      "type": "function"
    },
    {
      "inputs": [
        {
          "internalType": "address",
          "name": "newOwner",
          "type": "address"
        }
      ],
      "name": "transferOwnership",
      "outputs": [],
      "stateMutability": "nonpayable",
      "type": "function"
    },
    {
      "inputs": [
        {
          "internalType": "address",
          "name": "recipient",
          "type": "address"
        },
        {
          "internalType": "string",
          "name": "tokenURI",
          "type": "string"
        },
        {
          "internalType": "uint256",
          "name": "price",
          "type": "uint256"
        }
      ],
      "name": "mintNFT",
      "outputs": [
        {
          "internalType": "uint256",
          "name": "",
          "type": "uint256"
        }
      ],
      "stateMutability": "nonpayable",
      "type": "function"
    },
    {
      "inputs": [
        {
          "internalType": "uint256",
          "name": "tokenId",
          "type": "uint256"
        }
      ],
      "name": "purchaseNFT",
      "outputs": [],
      "stateMutability": "payable",
      "type": "function"
    },
    {
      "inputs": [
        {
          "internalType": "uint256",
          "name": "tokenId",
          "type": "uint256"
        }
      ],
      "name": "tokenURI",
      "outputs": [
        {
          "internalType": "string",
          "name": "",
          "type": "string"
        }
      ],
      "stateMutability": "view",
      "type": "function"
    }
  ],
  "bytecode": "0x60806040523480156200001157600080fd5b506040518060400160405280600e81526020016d13595b595b5bdb9a5e994813919560921b815250604051806040016040528060048152602001631353919560e21b815250816000908162000067919062000199565b50600162000076828262000199565b505050620000936200008d6200009e60201b60201c565b620000a2565b600160075562000265565b3390565b600680546001600160a01b038381166001600160a01b0319831681179093556040519116919082907f8be0079c531659141344cd1fd0a4f28419497f9722a3daafe3b4186f6b6457e090600090a35050565b634e487b7160e01b600052604160045260246000fd5b600181811c908216806200011f57607f821691505b6020821081036200014057634e487b7160e01b600052602260045260246000fd5b50919050565b601f8211156200019457600081815260208120601f850160051c810160208610156200016f5750805b601f850160051c820191505b8181101562000190578281556001016200017b565b5050505b505050565b81516001600160401b03811115620001b557620001b5620000f4565b620001cd81620001c684546200010a565b8462000146565b602080601f831160018114620002055760008415620001ec5750858301515b600019600386901b1c1916600185901b17855562000190565b600085815260208120601f198616915b82811015620002365788860151825594840194600190910190840162000215565b5085821015620002555787850151600019600388901b60f8161c191681555b5050505050600190811b01905550565b611a5f80620002756000396000f3fe6080604052600436106101145760003560e01c80636352211e116100a0578063a22cb46511610064578063a22cb46514610300578063b88d4fde14610320578063c87b56dd14610340578063e985e9c514610360578063f2fde38b1461038057600080fd5b80636352211e1461027857806370a0823114610298578063715018a6146102b85780638da5cb5b146102cd57806395d89b41146102eb57600080fd5b8063095ea7b3116100e7578063095ea7b3146101d6578063150bde03146101f857806323b872dd1461020b578063321f53271461022b57806342842e0e1461025857600080fd5b806301ffc9a71461011957806306fdde031461014e578063081812fc1461017057806308598df0146101a8575b600080fd5b34801561012557600080fd5b50610139610134366004611452565b6103a0565b60405190151581526020015b60405180910390f35b34801561015a57600080fd5b506101636103f2565b60405161014591906114bc565b34801561017c57600080fd5b5061019061018b3660046114cf565b610484565b6040516001600160a01b039091168152602001610145565b3480156101b457600080fd5b506101c86101c3366004611590565b6104ab565b604051908152602001610145565b3480156101e257600080fd5b506101f66101f13660046115fb565b61054a565b005b6101f66102063660046114cf565b61065f565b34801561021757600080fd5b506101f6610226366004611625565b610937565b34801561023757600080fd5b506101c86102463660046114cf565b60096020526000908152604090205481565b34801561026457600080fd5b506101f6610273366004611625565b610968565b34801561028457600080fd5b506101906102933660046114cf565b610983565b3480156102a457600080fd5b506101c86102b3366004611661565b6109e3565b3480156102c457600080fd5b506101f6610a69565b3480156102d957600080fd5b506006546001600160a01b0316610190565b3480156102f757600080fd5b50610163610a7d565b34801561030c57600080fd5b506101f661031b36600461167c565b610a8c565b34801561032c57600080fd5b506101f661033b3660046116b8565b610a9b565b34801561034c57600080fd5b5061016361035b3660046114cf565b610ad3565b34801561036c57600080fd5b5061013961037b366004611734565b610bef565b34801561038c57600080fd5b506101f661039b366004611661565b610c1d565b60006001600160e01b031982166380ac58cd60e01b14806103d157506001600160e01b03198216635b5e139f60e01b145b806103ec57506301ffc9a760e01b6001600160e01b03198316145b92915050565b60606000805461040190611767565b80601f016020809104026020016040519081016040528092919081815260200182805461042d90611767565b801561047a5780601f1061044f5761010080835404028352916020019161047a565b820191906000526020600020905b81548152906001019060200180831161045d57829003601f168201915b5050505050905090565b600061048f82610c96565b506000908152600460205260409020546001600160a01b031690565b60008082116105015760405162461bcd60e51b815260206004820152601f60248201527f5072696365206d7573742062652067726561746572207468616e207a65726f0060448201526064015b60405180910390fd5b60075461050e8582610cf5565b6105188185610d0f565b6000818152600960205260408120849055600780546001929061053c9084906117b7565b909155509095945050505050565b600061055582610983565b9050806001600160a01b0316836001600160a01b0316036105c25760405162461bcd60e51b815260206004820152602160248201527f4552433732313a20617070726f76616c20746f2063757272656e74206f776e656044820152603960f91b60648201526084016104f8565b336001600160a01b03821614806105de57506105de8133610bef565b6106505760405162461bcd60e51b815260206004820152603d60248201527f4552433732313a20617070726f76652063616c6c6572206973206e6f7420746f60448201527f6b656e206f776e6572206f7220617070726f76656420666f7220616c6c00000060648201526084016104f8565b61065a8383610d9f565b505050565b6000818152600960205260408120549061067883610983565b9050600082116106c25760405162461bcd60e51b8152602060048201526015602482015274546f6b656e206973206e6f7420666f722073616c6560581b60448201526064016104f8565b813410156107125760405162461bcd60e51b815260206004820152601760248201527f496e73756666696369656e742066756e64732073656e7400000000000000000060448201526064016104f8565b336001600160a01b0382160361076a5760405162461bcd60e51b815260206004820152601a60248201527f42757965722063616e6e6f74206265207468652073656c6c657200000000000060448201526064016104f8565b6000816001600160a01b03168360405160006040518083038185875af1925050503d80600081146107b7576040519150601f19603f3d011682016040523d82523d6000602084013e6107bc565b606091505b505090508061080d5760405162461bcd60e51b815260206004820181905260248201527f4661696c656420746f207472616e736665722045544820746f2073656c6c657260448201526064016104f8565b823411156108b65760003361082285346117ca565b604051600081818185875af1925050503d806000811461085e576040519150601f19603f3d011682016040523d82523d6000602084013e610863565b606091505b50509050806108b45760405162461bcd60e51b815260206004820152601d60248201527f4661696c656420746f20726566756e64206578636573732066756e647300000060448201526064016104f8565b505b6000848152600960209081526040808320839055805191820190529081526108e390839033908790610e0d565b336001600160a01b0316826001600160a01b0316857fef1fb2bd31f5ed737e6054243d9b5eacd3af967f35af45e8fb844ca6dbbe98f98660405161092991815260200190565b60405180910390a450505050565b6109413382610e40565b61095d5760405162461bcd60e51b81526004016104f8906117dd565b61065a838383610e9f565b61065a83838360405180602001604052806000815250610a9b565b6000818152600260205260408120546001600160a01b0316806103ec5760405162461bcd60e51b8152602060048201526018602482015277115490cdcc8c4e881a5b9d985b1a59081d1bdad95b88125160421b60448201526064016104f8565b60006001600160a01b038216610a4d5760405162461bcd60e51b815260206004820152602960248201527f4552433732313a2061646472657373207a65726f206973206e6f7420612076616044820152683634b21037bbb732b960b91b60648201526084016104f8565b506001600160a01b031660009081526003602052604090205490565b610a71611003565b610a7b600061105d565b565b60606001805461040190611767565b610a973383836110af565b5050565b610aa53383610e40565b610ac15760405162461bcd60e51b81526004016104f8906117dd565b610acd84848484610e0d565b50505050565b6000818152600260205260409020546060906001600160a01b0316610b515760405162461bcd60e51b815260206004820152602e60248201527f4d656d656d6f6e697a654e46543a2055524920717565727920666f72206e6f6e60448201526d32bc34b9ba32b73a103a37b5b2b760911b60648201526084016104f8565b60008281526008602052604090208054610b6a90611767565b80601f0160208091040260200160405190810160405280929190818152602001828054610b9690611767565b8015610be35780601f10610bb857610100808354040283529160200191610be3565b820191906000526020600020905b815481529060010190602001808311610bc657829003601f168201915b50505050509050919050565b6001600160a01b03918216600090815260056020908152604080832093909416825291909152205460ff1690565b610c25611003565b6001600160a01b038116610c8a5760405162461bcd60e51b815260206004820152602660248201527f4f776e61626c653a206e6577206f776e657220697320746865207a65726f206160448201526564647265737360d01b60648201526084016104f8565b610c938161105d565b50565b6000818152600260205260409020546001600160a01b0316610c935760405162461bcd60e51b8152602060048201526018602482015277115490cdcc8c4e881a5b9d985b1a59081d1bdad95b88125160421b60448201526064016104f8565b610a9782826040518060200160405280600081525061117d565b6000828152600260205260409020546001600160a01b0316610d875760405162461bcd60e51b815260206004820152602b60248201527f4d656d656d6f6e697a654e46543a2055524920736574206f66206e6f6e65786960448201526a39ba32b73a103a37b5b2b760a91b60648201526084016104f8565b600082815260086020526040902061065a8282611878565b600081815260046020526040902080546001600160a01b0319166001600160a01b0384169081179091558190610dd482610983565b6001600160a01b03167f8c5be1e5ebec7d5bd14f71427d1e84f3dd0314c0f7b2291e5b200ac8c7c3b92560405160405180910390a45050565b610e18848484610e9f565b610e24848484846111b0565b610acd5760405162461bcd60e51b81526004016104f890611938565b600080610e4c83610983565b9050806001600160a01b0316846001600160a01b03161480610e735750610e738185610bef565b80610e975750836001600160a01b0316610e8c84610484565b6001600160a01b0316145b949350505050565b826001600160a01b0316610eb282610983565b6001600160a01b031614610ed85760405162461bcd60e51b81526004016104f89061198a565b6001600160a01b038216610f3a5760405162461bcd60e51b8152602060048201526024808201527f4552433732313a207472616e7366657220746f20746865207a65726f206164646044820152637265737360e01b60648201526084016104f8565b826001600160a01b0316610f4d82610983565b6001600160a01b031614610f735760405162461bcd60e51b81526004016104f89061198a565b600081815260046020908152604080832080546001600160a01b03199081169091556001600160a01b0387811680865260038552838620805460001901905590871680865283862080546001019055868652600290945282852080549092168417909155905184937fddf252ad1be2c89b69c2b068fc378daa952ba7f163c4a11628f55a4df523b3ef91a4505050565b6006546001600160a01b03163314610a7b5760405162461bcd60e51b815260206004820181905260248201527f4f776e61626c653a2063616c6c6572206973206e6f7420746865206f776e657260448201526064016104f8565b600680546001600160a01b038381166001600160a01b0319831681179093556040519116919082907f8be0079c531659141344cd1fd0a4f28419497f9722a3daafe3b4186f6b6457e090600090a35050565b816001600160a01b0316836001600160a01b0316036111105760405162461bcd60e51b815260206004820152601960248201527f4552433732313a20617070726f766520746f2063616c6c65720000000000000060448201526064016104f8565b6001600160a01b03838116600081815260056020908152604080832094871680845294825291829020805460ff191686151590811790915591519182527f17307eab39ab6107e8899845ad3d59bd9653f200f220920489ca2b5937696c31910160405180910390a3505050565b61118783836112b1565b61119460008484846111b0565b61065a5760405162461bcd60e51b81526004016104f890611938565b60006001600160a01b0384163b156112a657604051630a85bd0160e11b81526001600160a01b0385169063150b7a02906111f49033908990889088906004016119cf565b6020604051808303816000875af192505050801561122f575060408051601f3d908101601f1916820190925261122c91810190611a0c565b60015b61128c573d80801561125d576040519150601f19603f3d011682016040523d82523d6000602084013e611262565b606091505b5080516000036112845760405162461bcd60e51b81526004016104f890611938565b805181602001fd5b6001600160e01b031916630a85bd0160e11b149050610e97565b506001949350505050565b6001600160a01b0382166113075760405162461bcd60e51b815260206004820181905260248201527f4552433732313a206d696e7420746f20746865207a65726f206164647265737360448201526064016104f8565b6000818152600260205260409020546001600160a01b03161561136c5760405162461bcd60e51b815260206004820152601c60248201527f4552433732313a20746f6b656e20616c7265616479206d696e7465640000000060448201526064016104f8565b6000818152600260205260409020546001600160a01b0316156113d15760405162461bcd60e51b815260206004820152601c60248201527f4552433732313a20746f6b656e20616c7265616479206d696e7465640000000060448201526064016104f8565b6001600160a01b038216600081815260036020908152604080832080546001019055848352600290915280822080546001600160a01b0319168417905551839291907fddf252ad1be2c89b69c2b068fc378daa952ba7f163c4a11628f55a4df523b3ef908290a45050565b6001600160e01b031981168114610c9357600080fd5b60006020828403121561146457600080fd5b813561146f8161143c565b9392505050565b6000815180845260005b8181101561149c57602081850181015186830182015201611480565b506000602082860101526020601f19601f83011685010191505092915050565b60208152600061146f6020830184611476565b6000602082840312156114e157600080fd5b5035919050565b80356001600160a01b03811681146114ff57600080fd5b919050565b634e487b7160e01b600052604160045260246000fd5b600067ffffffffffffffff8084111561153557611535611504565b604051601f8501601f19908116603f0116810190828211818310171561155d5761155d611504565b8160405280935085815286868601111561157657600080fd5b858560208301376000602087830101525050509392505050565b6000806000606084860312156115a557600080fd5b6115ae846114e8565b9250602084013567ffffffffffffffff8111156115ca57600080fd5b8401601f810186136115db57600080fd5b6115ea8682356020840161151a565b925050604084013590509250925092565b6000806040838503121561160e57600080fd5b611617836114e8565b946020939093013593505050565b60008060006060848603121561163a57600080fd5b611643846114e8565b9250611651602085016114e8565b9150604084013590509250925092565b60006020828403121561167357600080fd5b61146f826114e8565b6000806040838503121561168f57600080fd5b611698836114e8565b9150602083013580151581146116ad57600080fd5b809150509250929050565b600080600080608085870312156116ce57600080fd5b6116d7856114e8565b93506116e5602086016114e8565b925060408501359150606085013567ffffffffffffffff81111561170857600080fd5b8501601f8101871361171957600080fd5b6117288782356020840161151a565b91505092959194509250565b6000806040838503121561174757600080fd5b611750836114e8565b915061175e602084016114e8565b90509250929050565b600181811c9082168061177b57607f821691505b60208210810361179b57634e487b7160e01b600052602260045260246000fd5b50919050565b634e487b7160e01b600052601160045260246000fd5b808201808211156103ec576103ec6117a1565b818103818111156103ec576103ec6117a1565b6020808252602d908201527f4552433732313a2063616c6c6572206973206e6f7420746f6b656e206f776e6560408201526c1c881bdc88185c1c1c9bdd9959609a1b606082015260800190565b601f82111561065a57600081815260208120601f850160051c810160208610156118515750805b601f850160051c820191505b818110156118705782815560010161185d565b505050505050565b815167ffffffffffffffff81111561189257611892611504565b6118a6816118a08454611767565b8461182a565b602080601f8311600181146118db57600084156118c35750858301515b600019600386901b1c1916600185901b178555611870565b600085815260208120601f198616915b8281101561190a578886015182559484019460019091019084016118eb565b50858210156119285787850151600019600388901b60f8161c191681555b5050505050600190811b01905550565b60208082526032908201527f4552433732313a207472616e7366657220746f206e6f6e20455243373231526560408201527131b2b4bb32b91034b6b83632b6b2b73a32b960711b606082015260800190565b60208082526025908201527f4552433732313a207472616e736665722066726f6d20696e636f72726563742060408201526437bbb732b960d91b606082015260800190565b6001600160a01b0385811682528416602082015260408101839052608060608201819052600090611a0290830184611476565b9695505050505050565b600060208284031215611a1e57600080fd5b815161146f8161143c56fea264697066735822122091267b972837fb89004555d0f5532dd3eed3d8863ff1a7c699809c0277e76d9c64736f6c63430008110033",
  "immutableReferences": {},
  "source": "// SPDX-License-Identifier: MIT\npragma solidity ^0.8.0;\n\n// Import OpenZeppelin ERC721 Implementation and Ownable for access control\nimport \"@openzeppelin/contracts/token/ERC721/ERC721.sol\";\nimport \"@openzeppelin/contracts/access/Ownable.sol\";\n\n/**\n * @title MememonizeNFT\n * @dev ERC-721 compliant token representing unique Mememonize assets.\n * This contract includes marketplace functionality for listing and purchasing NFTs.\n */\ncontract MememonizeNFT is ERC721, Ownable {\n    // Token counter for unique token IDs\n    uint256 private _tokenIdCounter;\n\n    // Mapping for token URIs\n    mapping(uint256 => string) private _tokenURIs;\n    \n    // Mapping for sale prices. If a token is not for sale, its price is 0.\n    mapping(uint256 => uint256) public salePrices;\n    \n    // Event emitted when an NFT is purchased\n    event NFTPurchased(uint256 indexed tokenId, address indexed seller, address indexed buyer, uint256 price);\n\n    /**\n     * @dev Initializes the contract by setting a name and a symbol for the NFT.\n     */\n    constructor() ERC721(\"Mememonize NFT\", \"MNFT\") {\n        _tokenIdCounter = 1; // Start from 1 instead of 0\n    }\n\n    /**\n     * @notice Mint a new NFT and list it for sale automatically.\n     * @param recipient The address that will own the minted NFT.\n     * @param tokenURI The token URI that points to the NFT metadata.\n     * @param price The sale price in wei for which the NFT will be listed.\n     * @return The newly minted token ID.\n     */\n    function mintNFT(address recipient, string memory tokenURI, uint256 price) public returns (uint256) {\n        require(price > 0, \"Price must be greater than zero\");\n        uint256 newTokenId = _tokenIdCounter;\n        _safeMint(recipient, newTokenId);\n        _setTokenURI(newTokenId, tokenURI);\n\n        // Automatically list NFT for sale by setting its sale price.\n        salePrices[newTokenId] = price;\n\n        _tokenIdCounter += 1;\n        return newTokenId;\n    }\n\n    /**\n     * @dev Internal function to set the token URI for a given tokenId.\n     * Reverts if the tokenId does not exist.\n     * @param tokenId uint256 ID of the token.\n     * @param tokenURI string URI to assign.\n     */\n    function _setTokenURI(uint256 tokenId, string memory tokenURI) internal virtual {\n        require(_exists(tokenId), \"MememonizeNFT: URI set of nonexistent token\");\n        _tokenURIs[tokenId] = tokenURI;\n    }\n\n\n    /**\n     * @notice Purchase an NFT that is listed for sale.\n     * Buyer sends the required ETH and the token is transferred to the buyer.\n     * @param tokenId The token ID to purchase.\n     */\n    function purchaseNFT(uint256 tokenId) public payable {\n        uint256 price = salePrices[tokenId];\n        address seller = ownerOf(tokenId);\n        require(price > 0, \"Token is not for sale\");\n        require(msg.value >= price, \"Insufficient funds sent\");\n        require(seller != msg.sender, \"Buyer cannot be the seller\");\n\n        // Transfer ETH to the seller using call to prevent reentrancy issues\n        (bool sentToSeller, ) = payable(seller).call{value: price}(\"\");\n        require(sentToSeller, \"Failed to transfer ETH to seller\");\n\n        // Refund any excess ETH sent to the buyer\n        if (msg.value > price) {\n            (bool refunded, ) = payable(msg.sender).call{value: msg.value - price}(\"\");\n            require(refunded, \"Failed to refund excess funds\");\n        }\n\n        // Clear the sale price so the token is no longer listed\n        salePrices[tokenId] = 0;\n\n        // Transfer the NFT from the seller to the buyer\n        _safeTransfer(seller, msg.sender, tokenId, \"\");\n\n        // Emit an event for off-chain tracking\n        emit NFTPurchased(tokenId, seller, msg.sender, price);\n    }\n\n    /**\n     * @dev Returns the token URI for the given tokenId.\n     * Reverts if the tokenId does not exist.\n     * @param tokenId uint256 ID of the token.\n     * @return string URI associated with the token.\n     */\n    function tokenURI(uint256 tokenId) public view override returns (string memory) {\n        require(_exists(tokenId), \"MememonizeNFT: URI query for nonexistent token\");\n        return _tokenURIs[tokenId];\n    }\n}\n",
  "sourcePath": "E:\\Desktop\\mememonize-deploy-main\\smart-contracts\\contracts\\MememonizeNFT.sol",
  "compiler": {
    "name": "solc",
    "version": "0.8.17+commit.8df45f5f.Emscripten.clang"
  },
  "schemaVersion": "3.4.16",
  "updatedAt": "2025-03-26T12:51:12.373Z",
  "devdoc": {
    "details": "ERC-721 compliant token representing unique Mememonize assets. This contract includes marketplace functionality for listing and purchasing NFTs.",
    "kind": "dev",
    "methods": {
      "approve(address,uint256)": {
        "details": "See {IERC721-approve}."
      },
      "balanceOf(address)": {
        "details": "See {IERC721-balanceOf}."
      },
      "constructor": {
        "details": "Initializes the contract by setting a name and a symbol for the NFT."
      },
      "getApproved(uint256)": {
        "details": "See {IERC721-getApproved}."
      },
      "isApprovedForAll(address,address)": {
        "details": "See {IERC721-isApprovedForAll}."
      },
      "mintNFT(address,string,uint256)": {
        "params": {
          "price": "The sale price in wei for which the NFT will be listed.",
          "recipient": "The address that will own the minted NFT.",
          "tokenURI": "The token URI that points to the NFT metadata."
        },
        "returns": {
          "_0": "The newly minted token ID."
        }
      },
      "name()": {
        "details": "See {IERC721Metadata-name}."
      },
      "owner()": {
        "details": "Returns the address of the current owner."
      },
      "ownerOf(uint256)": {
        "details": "See {IERC721-ownerOf}."
      },
      "purchaseNFT(uint256)": {
        "params": {
          "tokenId": "The token ID to purchase."
        }
      },
      "renounceOwnership()": {
        "details": "Leaves the contract without owner. It will not be possible to call `onlyOwner` functions. Can only be called by the current owner. NOTE: Renouncing ownership will leave the contract without an owner, thereby disabling any functionality that is only available to the owner."
      },
      "safeTransferFrom(address,address,uint256)": {
        "details": "See {IERC721-safeTransferFrom}."
      },
      "safeTransferFrom(address,address,uint256,bytes)": {
        "details": "See {IERC721-safeTransferFrom}."
      },
      "setApprovalForAll(address,bool)": {
        "details": "See {IERC721-setApprovalForAll}."
      },
      "supportsInterface(bytes4)": {
        "details": "See {IERC165-supportsInterface}."
      },
      "symbol()": {
        "details": "See {IERC721Metadata-symbol}."
      },
      "tokenURI(uint256)": {
        "details": "Returns the token URI for the given tokenId. Reverts if the tokenId does not exist.",
        "params": {
          "tokenId": "uint256 ID of the token."
        },
        "returns": {
          "_0": "string URI associated with the token."
        }
      },
      "transferFrom(address,address,uint256)": {
        "details": "See {IERC721-transferFrom}."
      },
      "transferOwnership(address)": {
        "details": "Transfers ownership of the contract to a new account (`newOwner`). Can only be called by the current owner."
      }
    },
    "title": "MememonizeNFT",
    "version": 1
  },
  "userdoc": {
    "kind": "user",
    "methods": {
      "mintNFT(address,string,uint256)": {
        "notice": "Mint a new NFT and list it for sale automatically."
      },
      "purchaseNFT(uint256)": {
        "notice": "Purchase an NFT that is listed for sale. Buyer sends the required ETH and the token is transferred to the buyer."
      }
    },
    "version": 1
  }
}