{
  "contractName": "MememonizeEscrow",
  "abi": [
    {
      "anonymous": false,
      "inputs": [
        {
          "indexed": true,
          "internalType": "uint256",
          "name": "assetId",
          "type": "uint256"
        },
        {
          "indexed": false,
          "internalType": "string",
          "name": "name",
          "type": "string"
        },
        {
          "indexed": false,
          "internalType": "uint256",
          "name": "price",
          "type": "uint256"
        },
        {
          "indexed": false,
          "internalType": "address",
          "name": "owner",
          "type": "address"
        }
      ],
      "name": "AssetListed",
      "type": "event"
    },
    {
      "anonymous": false,
      "inputs": [
        {
          "indexed": true,
          "internalType": "uint256",
          "name": "assetId",
          "type": "uint256"
        },
        {
          "indexed": true,
          "internalType": "uint256",
          "name": "transactionId",
          "type": "uint256"
        },
        {
          "indexed": false,
          "internalType": "address",
          "name": "buyer",
          "type": "address"
        },
        {
          "indexed": false,
          "internalType": "address",
          "name": "seller",
          "type": "address"
        },
        {
          "indexed": false,
          "internalType": "uint256",
          "name": "price",
          "type": "uint256"
        }
      ],
      "name": "AssetPurchased",
      "type": "event"
    },
    {
      "anonymous": false,
      "inputs": [
        {
          "indexed": true,
          "internalType": "uint256",
          "name": "transactionId",
          "type": "uint256"
        }
      ],
      "name": "TransactionCancelled",
      "type": "event"
    },
    {
      "anonymous": false,
      "inputs": [
        {
          "indexed": true,
          "internalType": "uint256",
          "name": "transactionId",
          "type": "uint256"
        }
      ],
      "name": "TransactionCompleted",
      "type": "event"
    },
    {
      "inputs": [
        {
          "internalType": "uint256",
          "name": "",
          "type": "uint256"
        }
      ],
      "name": "assets",
      "outputs": [
        {
          "internalType": "uint256",
          "name": "id",
          "type": "uint256"
        },
        {
          "internalType": "string",
          "name": "name",
          "type": "string"
        },
        {
          "internalType": "uint256",
          "name": "price",
          "type": "uint256"
        },
        {
          "internalType": "address",
          "name": "owner",
          "type": "address"
        },
        {
          "internalType": "bool",
          "name": "isAvailable",
          "type": "bool"
        }
      ],
      "stateMutability": "view",
      "type": "function"
    },
    {
      "inputs": [
        {
          "internalType": "uint256",
          "name": "",
          "type": "uint256"
        }
      ],
      "name": "transactions",
      "outputs": [
        {
          "internalType": "uint256",
          "name": "id",
          "type": "uint256"
        },
        {
          "internalType": "uint256",
          "name": "assetId",
          "type": "uint256"
        },
        {
          "internalType": "address",
          "name": "buyer",
          "type": "address"
        },
        {
          "internalType": "address",
          "name": "seller",
          "type": "address"
        },
        {
          "internalType": "uint256",
          "name": "price",
          "type": "uint256"
        },
        {
          "internalType": "enum MememonizeEscrow.TransactionStatus",
          "name": "status",
          "type": "uint8"
        },
        {
          "internalType": "uint256",
          "name": "timestamp",
          "type": "uint256"
        }
      ],
      "stateMutability": "view",
      "type": "function"
    },
    {
      "inputs": [
        {
          "internalType": "string",
          "name": "name",
          "type": "string"
        },
        {
          "internalType": "uint256",
          "name": "price",
          "type": "uint256"
        }
      ],
      "name": "listAsset",
      "outputs": [
        {
          "internalType": "uint256",
          "name": "",
          "type": "uint256"
        }
      ],
      "stateMutability": "nonpayable",
      "type": "function"
    },
    {
      "inputs": [
        {
          "internalType": "uint256",
          "name": "assetId",
          "type": "uint256"
        }
      ],
      "name": "purchaseAsset",
      "outputs": [
        {
          "internalType": "uint256",
          "name": "",
          "type": "uint256"
        }
      ],
      "stateMutability": "payable",
      "type": "function"
    },
    {
      "inputs": [
        {
          "internalType": "uint256",
          "name": "transactionId",
          "type": "uint256"
        }
      ],
      "name": "completeTransaction",
      "outputs": [],
      "stateMutability": "nonpayable",
      "type": "function"
    },
    {
      "inputs": [
        {
          "internalType": "uint256",
          "name": "transactionId",
          "type": "uint256"
        }
      ],
      "name": "cancelTransaction",
      "outputs": [],
      "stateMutability": "nonpayable",
      "type": "function"
    },
    {
      "inputs": [
        {
          "internalType": "uint256",
          "name": "assetId",
          "type": "uint256"
        }
      ],
      "name": "getAsset",
      "outputs": [
        {
          "internalType": "uint256",
          "name": "id",
          "type": "uint256"
        },
        {
          "internalType": "string",
          "name": "name",
          "type": "string"
        },
        {
          "internalType": "uint256",
          "name": "price",
          "type": "uint256"
        },
        {
          "internalType": "address",
          "name": "owner",
          "type": "address"
        },
        {
          "internalType": "bool",
          "name": "isAvailable",
          "type": "bool"
        }
      ],
      "stateMutability": "view",
      "type": "function"
    },
    {
      "inputs": [
        {
          "internalType": "uint256",
          "name": "transactionId",
          "type": "uint256"
        }
      ],
      "name": "getTransaction",
      "outputs": [
        {
          "internalType": "uint256",
          "name": "id",
          "type": "uint256"
        },
        {
          "internalType": "uint256",
          "name": "assetId",
          "type": "uint256"
        },
        {
          "internalType": "address",
          "name": "buyer",
          "type": "address"
        },
        {
          "internalType": "address",
          "name": "seller",
          "type": "address"
        },
        {
          "internalType": "uint256",
          "name": "price",
          "type": "uint256"
        },
        {
          "internalType": "enum MememonizeEscrow.TransactionStatus",
          "name": "status",
          "type": "uint8"
        },
        {
          "internalType": "uint256",
          "name": "timestamp",
          "type": "uint256"
        }
      ],
      "stateMutability": "view",
      "type": "function"
    }
  ],
  "bytecode": "0x60806040526001600255600160035534801561001a57600080fd5b50610e108061002a6000396000f3fe60806040526004361061007b5760003560e01c8063a457e1c01161004e578063a457e1c0146101be578063cf35bdd0146101d1578063eac8f5b814610202578063f5e83e171461022257600080fd5b80633380c0d81461008057806333ea3dc8146100a25780639163f2d9146101285780639ace38c214610156575b600080fd5b34801561008c57600080fd5b506100a061009b366004610a57565b610242565b005b3480156100ae57600080fd5b5061010c6100bd366004610a57565b60009081526001602081905260409091208054918101546002820154600383015460048401546005850154600690950154959693956001600160a01b03938416959390921693909260ff169190565b60405161011f9796959493929190610a86565b60405180910390f35b34801561013457600080fd5b50610148610143366004610afb565b6103c4565b60405190815260200161011f565b34801561016257600080fd5b5061010c610171366004610a57565b6001602081905260009182526040909120805491810154600282015460038301546004840154600585015460069095015493946001600160a01b03938416949390921692909160ff169087565b6101486101cc366004610a57565b6104b7565b3480156101dd57600080fd5b506101f16101ec366004610a57565b610727565b60405161011f959493929190610bf6565b34801561020e57600080fd5b506101f161021d366004610a57565b6107ed565b34801561022e57600080fd5b506100a061023d366004610a57565b6108d3565b600081815260016020526040812090600582015460ff16600281111561026a5761026a610a70565b146102b65760405162461bcd60e51b81526020600482015260176024820152765472616e73616374696f6e206e6f742070656e64696e6760481b60448201526064015b60405180910390fd5b60028101546001600160a01b03163314806102dd575060038101546001600160a01b031633145b61031a5760405162461bcd60e51b815260206004820152600e60248201526d139bdd08185d5d1a1bdc9a5e995960921b60448201526064016102ad565b600581018054600260ff199091168117909155600182015460009081526020819052604080822060038101805460ff60a01b1916600160a01b17905592840154600485015491516001600160a01b039091169282156108fc02929190818181858888f19350505050158015610393573d6000803e3d6000fd5b5060405183907f956fb32199d8b882b2039a14e1be35ab14f7a80b9089fc223f14b43937173e6090600090a2505050565b60028054600091829190826103d883610c37565b909155506040805160a0810182528281526020808201888152828401889052336060840152600160808401819052600086815292839052939091208251815590519394509092909182019061042d9082610ce7565b5060408281015160028301556060830151600390920180546080909401511515600160a01b026001600160a81b03199094166001600160a01b03909316929092179290921790555181907f471de1209f17ba01b60553e6cad8b1dabe903e3e27a41a7c7bbbbe15a8cd9e32906104a890879087903390610da7565b60405180910390a29392505050565b60008181526020819052604081206003810154600160a01b900460ff166105165760405162461bcd60e51b81526020600482015260136024820152724173736574206e6f7420617661696c61626c6560681b60448201526064016102ad565b806002015434146105695760405162461bcd60e51b815260206004820152601860248201527f496e636f7272656374207061796d656e7420616d6f756e74000000000000000060448201526064016102ad565b60038101546001600160a01b031633036105c55760405162461bcd60e51b815260206004820152601960248201527f43616e6e6f742062757920796f7572206f776e2061737365740000000000000060448201526064016102ad565b60038054600091826105d683610c37565b909155506040805160e08101825282815260208101879052339181019190915260038401546001600160a01b031660608201526002840154608082015290915060a0810160008152426020918201526000838152600180835260409182902084518155928401518382015590830151600280840180546001600160a01b039384166001600160a01b0319918216179091556060860151600386018054919094169116179091556080840151600484015560a08401516005840180549193909260ff199092169184908111156106ad576106ad610a70565b021790555060c0919091015160069091015560038201805460ff60a01b1981169091556002830154604080513381526001600160a01b039093166020840152820152819085907fea6a7f85494229d18843eff06c72b566e4c0cfa710d2b079d469e037175279229060600160405180910390a39392505050565b6000602081905290815260409020805460018201805491929161074990610c5e565b80601f016020809104026020016040519081016040528092919081815260200182805461077590610c5e565b80156107c25780601f10610797576101008083540402835291602001916107c2565b820191906000526020600020905b8154815290600101906020018083116107a557829003601f168201915b5050505060028301546003909301549192916001600160a01b0381169150600160a01b900460ff1685565b600081815260208190526040812080546002820154600383015460018401805460609587958695869592949193919290916001600160a01b03821691600160a01b900460ff1690849061083f90610c5e565b80601f016020809104026020016040519081016040528092919081815260200182805461086b90610c5e565b80156108b85780601f1061088d576101008083540402835291602001916108b8565b820191906000526020600020905b81548152906001019060200180831161089b57829003601f168201915b50505050509350955095509550955095505091939590929450565b60008181526001602052604090206002015481906001600160a01b0316331461092e5760405162461bcd60e51b815260206004820152600d60248201526c2737ba103a343290313abcb2b960991b60448201526064016102ad565b600082815260016020526040812090600582015460ff16600281111561095657610956610a70565b1461099d5760405162461bcd60e51b81526020600482015260176024820152765472616e73616374696f6e206e6f742070656e64696e6760481b60448201526064016102ad565b6005810180546001919060ff19168280021790555060018101546000908152602081905260408082206002840154600380830180546001600160a81b0319166001600160a01b0393841617600160a01b17905585015460048601549351929491169280156108fc02929091818181858888f19350505050158015610a25573d6000803e3d6000fd5b5060405184907f161186077e0cdfa49fae16d54ce01ea091439dbf14243419593fa6c051c906c890600090a250505050565b600060208284031215610a6957600080fd5b5035919050565b634e487b7160e01b600052602160045260246000fd5b878152602081018790526001600160a01b038681166040830152851660608201526080810184905260e0810160038410610ad057634e487b7160e01b600052602160045260246000fd5b60a082019390935260c0015295945050505050565b634e487b7160e01b600052604160045260246000fd5b60008060408385031215610b0e57600080fd5b823567ffffffffffffffff80821115610b2657600080fd5b818501915085601f830112610b3a57600080fd5b813581811115610b4c57610b4c610ae5565b604051601f8201601f19908116603f01168101908382118183101715610b7457610b74610ae5565b81604052828152886020848701011115610b8d57600080fd5b826020860160208301376000602093820184015298969091013596505050505050565b6000815180845260005b81811015610bd657602081850181015186830182015201610bba565b506000602082860101526020601f19601f83011685010191505092915050565b85815260a060208201526000610c0f60a0830187610bb0565b6040830195909552506001600160a01b03929092166060830152151560809091015292915050565b600060018201610c5757634e487b7160e01b600052601160045260246000fd5b5060010190565b600181811c90821680610c7257607f821691505b602082108103610c9257634e487b7160e01b600052602260045260246000fd5b50919050565b601f821115610ce257600081815260208120601f850160051c81016020861015610cbf5750805b601f850160051c820191505b81811015610cde57828155600101610ccb565b5050505b505050565b815167ffffffffffffffff811115610d0157610d01610ae5565b610d1581610d0f8454610c5e565b84610c98565b602080601f831160018114610d4a5760008415610d325750858301515b600019600386901b1c1916600185901b178555610cde565b600085815260208120601f198616915b82811015610d7957888601518255948401946001909101908401610d5a565b5085821015610d975787850151600019600388901b60f8161c191681555b5050505050600190811b01905550565b606081526000610dba6060830186610bb0565b6020830194909452506001600160a01b039190911660409091015291905056fea2646970667358221220b81de2d947910a9e946540a4b13cca8ef1eb2a83ae9d820051d0003097e8473164736f6c63430008110033",
  "immutableReferences": {},
  "source": "// SPDX-License-Identifier: MIT\npragma solidity ^0.8.0;\n\ncontract MememonizeEscrow {\n    // Struct to store asset information\n    struct Asset {\n        uint256 id;\n        string name;\n        uint256 price;\n        address owner;\n        bool isAvailable;\n    }\n    \n    // Struct to store transaction information\n    struct Transaction {\n        uint256 id;\n        uint256 assetId;\n        address buyer;\n        address seller;\n        uint256 price;\n        TransactionStatus status;\n        uint256 timestamp;\n    }\n    \n    // Enum for transaction status\n    enum TransactionStatus { Pending, Completed, Cancelled }\n    \n    // Mapping from asset ID to Asset\n    mapping(uint256 => Asset) public assets;\n    \n    // Mapping from transaction ID to Transaction\n    mapping(uint256 => Transaction) public transactions;\n    \n    // Counter for asset IDs\n    uint256 private nextAssetId = 1;\n    \n    // Counter for transaction IDs\n    uint256 private nextTransactionId = 1;\n    \n    // Events\n    event AssetListed(uint256 indexed assetId, string name, uint256 price, address owner);\n    event AssetPurchased(uint256 indexed assetId, uint256 indexed transactionId, address buyer, address seller, uint256 price);\n    event TransactionCompleted(uint256 indexed transactionId);\n    event TransactionCancelled(uint256 indexed transactionId);\n    \n    // Modifiers\n    modifier onlyAssetOwner(uint256 assetId) {\n        require(assets[assetId].owner == msg.sender, \"Not the asset owner\");\n        _;\n    }\n    \n    modifier onlyBuyer(uint256 transactionId) {\n        require(transactions[transactionId].buyer == msg.sender, \"Not the buyer\");\n        _;\n    }\n    \n    modifier onlySeller(uint256 transactionId) {\n        require(transactions[transactionId].seller == msg.sender, \"Not the seller\");\n        _;\n    }\n    \n    // List a new asset for sale\n    function listAsset(string memory name, uint256 price) external returns (uint256) {\n        uint256 assetId = nextAssetId++;\n        \n        assets[assetId] = Asset({\n            id: assetId,\n            name: name,\n            price: price,\n            owner: msg.sender,\n            isAvailable: true\n        });\n        \n        emit AssetListed(assetId, name, price, msg.sender);\n        \n        return assetId;\n    }\n    \n    // Purchase an asset (creates a transaction and holds funds in escrow)\n    function purchaseAsset(uint256 assetId) external payable returns (uint256) {\n        Asset storage asset = assets[assetId];\n        \n        require(asset.isAvailable, \"Asset not available\");\n        require(msg.value == asset.price, \"Incorrect payment amount\");\n        require(msg.sender != asset.owner, \"Cannot buy your own asset\");\n        \n        uint256 transactionId = nextTransactionId++;\n        \n        transactions[transactionId] = Transaction({\n            id: transactionId,\n            assetId: assetId,\n            buyer: msg.sender,\n            seller: asset.owner,\n            price: asset.price,\n            status: TransactionStatus.Pending,\n            timestamp: block.timestamp\n        });\n        \n        // Mark asset as unavailable while in transaction\n        asset.isAvailable = false;\n        \n        emit AssetPurchased(assetId, transactionId, msg.sender, asset.owner, asset.price);\n        \n        return transactionId;\n    }\n    \n    // Complete a transaction (release funds to seller and transfer asset to buyer)\n    function completeTransaction(uint256 transactionId) external onlyBuyer(transactionId) {\n        Transaction storage transaction = transactions[transactionId];\n        \n        require(transaction.status == TransactionStatus.Pending, \"Transaction not pending\");\n        \n        // Update transaction status\n        transaction.status = TransactionStatus.Completed;\n        \n        // Transfer asset ownership\n        Asset storage asset = assets[transaction.assetId];\n        asset.owner = transaction.buyer;\n        asset.isAvailable = true;  // Make it available for the new owner to sell\n        \n        // Transfer funds to seller\n        payable(transaction.seller).transfer(transaction.price);\n        \n        emit TransactionCompleted(transactionId);\n    }\n    \n    // Cancel a transaction (refund buyer and return asset to seller)\n    function cancelTransaction(uint256 transactionId) external {\n        Transaction storage transaction = transactions[transactionId];\n        \n        require(transaction.status == TransactionStatus.Pending, \"Transaction not pending\");\n        require(msg.sender == transaction.buyer || msg.sender == transaction.seller, \"Not authorized\");\n        \n        // Update transaction status\n        transaction.status = TransactionStatus.Cancelled;\n        \n        // Make asset available again\n        Asset storage asset = assets[transaction.assetId];\n        asset.isAvailable = true;\n        \n        // Refund buyer\n        payable(transaction.buyer).transfer(transaction.price);\n        \n        emit TransactionCancelled(transactionId);\n    }\n    \n    // Get asset details\n    function getAsset(uint256 assetId) external view returns (\n        uint256 id,\n        string memory name,\n        uint256 price,\n        address owner,\n        bool isAvailable\n    ) {\n        Asset storage asset = assets[assetId];\n        return (asset.id, asset.name, asset.price, asset.owner, asset.isAvailable);\n    }\n    \n    // Get transaction details\n    function getTransaction(uint256 transactionId) external view returns (\n        uint256 id,\n        uint256 assetId,\n        address buyer,\n        address seller,\n        uint256 price,\n        TransactionStatus status,\n        uint256 timestamp\n    ) {\n        Transaction storage transaction = transactions[transactionId];\n        return (\n            transaction.id,\n            transaction.assetId,\n            transaction.buyer,\n            transaction.seller,\n            transaction.price,\n            transaction.status,\n            transaction.timestamp\n        );\n    }\n}\n\n",
  "sourcePath": "E:\\Desktop\\mememonize-trading\\smart-contracts\\contracts\\MememonizeEscrow.sol",
  "compiler": {
    "name": "solc",
    "version": "0.8.17+commit.8df45f5f.Emscripten.clang"
  },
  "schemaVersion": "3.4.16",
  "updatedAt": "2025-03-18T01:56:12.356Z",
  "devdoc": {
    "kind": "dev",
    "methods": {},
    "version": 1
  },
  "userdoc": {
    "kind": "user",
    "methods": {},
    "version": 1
  }
}